{
  "contractName": "DegreeValidate",
  "abi": [
    {
      "inputs": [],
      "payable": false,
      "stateMutability": "nonpayable",
      "type": "constructor"
    },
    {
      "anonymous": false,
      "inputs": [
        {
          "indexed": true,
          "name": "userAddress",
          "type": "address"
        },
        {
          "indexed": false,
          "name": "major",
          "type": "string"
        },
        {
          "indexed": false,
          "name": "gradYear",
          "type": "string"
        },
        {
          "indexed": false,
          "name": "index",
          "type": "uint256"
        }
      ],
      "name": "PushExistingUser",
      "type": "event"
    },
    {
      "anonymous": false,
      "inputs": [
        {
          "indexed": true,
          "name": "userAddress",
          "type": "address"
        },
        {
          "indexed": false,
          "name": "major",
          "type": "string"
        },
        {
          "indexed": false,
          "name": "gradYear",
          "type": "string"
        },
        {
          "indexed": false,
          "name": "index",
          "type": "uint256"
        }
      ],
      "name": "PushNewUser",
      "type": "event"
    },
    {
      "constant": true,
      "inputs": [
        {
          "name": "userAddress",
          "type": "address"
        }
      ],
      "name": "isUser",
      "outputs": [
        {
          "name": "isIndeed",
          "type": "bool"
        }
      ],
      "payable": false,
      "stateMutability": "view",
      "type": "function"
    },
    {
      "constant": false,
      "inputs": [
        {
          "name": "user",
          "type": "address"
        },
        {
          "name": "major",
          "type": "string"
        },
        {
          "name": "gradYear",
          "type": "string"
        }
      ],
      "name": "updateUser",
      "outputs": [
        {
          "name": "success",
          "type": "bool"
        }
      ],
      "payable": false,
      "stateMutability": "nonpayable",
      "type": "function"
    },
    {
      "constant": false,
      "inputs": [
        {
          "name": "user",
          "type": "address"
        },
        {
          "name": "major",
          "type": "string"
        },
        {
          "name": "gradYear",
          "type": "string"
        }
      ],
      "name": "newUser",
      "outputs": [
        {
          "name": "success",
          "type": "bool"
        }
      ],
      "payable": false,
      "stateMutability": "nonpayable",
      "type": "function"
    },
    {
      "constant": true,
      "inputs": [
        {
          "name": "addr",
          "type": "address"
        }
      ],
      "name": "getUserMajor",
      "outputs": [
        {
          "name": "major",
          "type": "string"
        }
      ],
      "payable": false,
      "stateMutability": "view",
      "type": "function"
    },
    {
      "constant": true,
      "inputs": [
        {
          "name": "addr",
          "type": "address"
        }
      ],
      "name": "getUserGradYear",
      "outputs": [
        {
          "name": "gradYear",
          "type": "string"
        }
      ],
      "payable": false,
      "stateMutability": "view",
      "type": "function"
    },
    {
      "constant": true,
      "inputs": [],
      "name": "getMaxIndex",
      "outputs": [
        {
          "name": "maxIndex",
          "type": "uint256"
        }
      ],
      "payable": false,
      "stateMutability": "view",
      "type": "function"
    }
  ],
  "bytecode": "0x608060405234801561001057600080fd5b50610e36806100206000396000f300608060405260043610610078576000357c0100000000000000000000000000000000000000000000000000000000900463ffffffff16806310e8b22d1461007d5780634209fff1146101645780634a746d05146101bf5780634fe4f70b146102a65780635593b36814610362578063ce145c121461041e575b600080fd5b34801561008957600080fd5b5061014a600480360381019080803573ffffffffffffffffffffffffffffffffffffffff169060200190929190803590602001908201803590602001908080601f0160208091040260200160405190810160405280939291908181526020018383808284378201915050505050509192919290803590602001908201803590602001908080601f0160208091040260200160405190810160405280939291908181526020018383808284378201915050505050509192919290505050610449565b604051808215151515815260200191505060405180910390f35b34801561017057600080fd5b506101a5600480360381019080803573ffffffffffffffffffffffffffffffffffffffff169060200190929190505050610741565b604051808215151515815260200191505060405180910390f35b3480156101cb57600080fd5b5061028c600480360381019080803573ffffffffffffffffffffffffffffffffffffffff169060200190929190803590602001908201803590602001908080601f0160208091040260200160405190810160405280939291908181526020018383808284378201915050505050509192919290803590602001908201803590602001908080601f016020809104026020016040519081016040528093929190818152602001838380828437820191505050505050919291929050505061080a565b604051808215151515815260200191505060405180910390f35b3480156102b257600080fd5b506102e7600480360381019080803573ffffffffffffffffffffffffffffffffffffffff169060200190929190505050610b92565b6040518080602001828103825283818151815260200191508051906020019080838360005b8381101561032757808201518184015260208101905061030c565b50505050905090810190601f1680156103545780820380516001836020036101000a031916815260200191505b509250505060405180910390f35b34801561036e57600080fd5b506103a3600480360381019080803573ffffffffffffffffffffffffffffffffffffffff169060200190929190505050610c75565b6040518080602001828103825283818151815260200191508051906020019080838360005b838110156103e35780820151818401526020810190506103c8565b50505050905090810190601f1680156104105780820380516001836020036101000a031916815260200191505b509250505060405180910390f35b34801561042a57600080fd5b50610433610d58565b6040518082815260200191505060405180910390f35b600061045484610741565b15156104675761046584848461080a565b505b826000808673ffffffffffffffffffffffffffffffffffffffff1673ffffffffffffffffffffffffffffffffffffffff16815260200190815260200160002060000190805190602001906104bc929190610d65565b50816000808673ffffffffffffffffffffffffffffffffffffffff1673ffffffffffffffffffffffffffffffffffffffff1681526020019081526020016000206001019080519060200190610512929190610d65565b508373ffffffffffffffffffffffffffffffffffffffff167f9adf2d3f145d240bd7d02bac4e336fbff7685f7f0260f3971112beb9b91b82536000808773ffffffffffffffffffffffffffffffffffffffff1673ffffffffffffffffffffffffffffffffffffffff1681526020019081526020016000206000016000808873ffffffffffffffffffffffffffffffffffffffff1673ffffffffffffffffffffffffffffffffffffffff1681526020019081526020016000206001016000808973ffffffffffffffffffffffffffffffffffffffff1673ffffffffffffffffffffffffffffffffffffffff168152602001908152602001600020600201546040518080602001806020018481526020018381038352868181546001816001161561010002031660029004815260200191508054600181600116156101000203166002900480156106a25780601f10610677576101008083540402835291602001916106a2565b820191906000526020600020905b81548152906001019060200180831161068557829003601f168201915b50508381038252858181546001816001161561010002031660029004815260200191508054600181600116156101000203166002900480156107255780601f106106fa57610100808354040283529160200191610725565b820191906000526020600020905b81548152906001019060200180831161070857829003601f168201915b50509550505050505060405180910390a2600190509392505050565b60008060018054905014156107595760009050610805565b8173ffffffffffffffffffffffffffffffffffffffff1660016000808573ffffffffffffffffffffffffffffffffffffffff1673ffffffffffffffffffffffffffffffffffffffff168152602001908152602001600020600201548154811015156107c057fe5b9060005260206000200160009054906101000a900473ffffffffffffffffffffffffffffffffffffffff1673ffffffffffffffffffffffffffffffffffffffff161490505b919050565b6000826000808673ffffffffffffffffffffffffffffffffffffffff1673ffffffffffffffffffffffffffffffffffffffff1681526020019081526020016000206000019080519060200190610861929190610d65565b50816000808673ffffffffffffffffffffffffffffffffffffffff1673ffffffffffffffffffffffffffffffffffffffff16815260200190815260200160002060010190805190602001906108b7929190610d65565b506001808590806001815401808255809150509060018203906000526020600020016000909192909190916101000a81548173ffffffffffffffffffffffffffffffffffffffff021916908373ffffffffffffffffffffffffffffffffffffffff160217905550036000808673ffffffffffffffffffffffffffffffffffffffff1673ffffffffffffffffffffffffffffffffffffffff168152602001908152602001600020600201819055508373ffffffffffffffffffffffffffffffffffffffff167f4f25d1fd967dda6f7c7edbaa17aa133bd18e1884938f88c35466f3cfce8717d76000808773ffffffffffffffffffffffffffffffffffffffff1673ffffffffffffffffffffffffffffffffffffffff1681526020019081526020016000206000016000808873ffffffffffffffffffffffffffffffffffffffff1673ffffffffffffffffffffffffffffffffffffffff1681526020019081526020016000206001016000808973ffffffffffffffffffffffffffffffffffffffff1673ffffffffffffffffffffffffffffffffffffffff16815260200190815260200160002060020154604051808060200180602001848152602001838103835286818154600181600116156101000203166002900481526020019150805460018160011615610100020316600290048015610af35780601f10610ac857610100808354040283529160200191610af3565b820191906000526020600020905b815481529060010190602001808311610ad657829003601f168201915b5050838103825285818154600181600116156101000203166002900481526020019150805460018160011615610100020316600290048015610b765780601f10610b4b57610100808354040283529160200191610b76565b820191906000526020600020905b815481529060010190602001808311610b5957829003601f168201915b50509550505050505060405180910390a2600190509392505050565b60606000808373ffffffffffffffffffffffffffffffffffffffff1673ffffffffffffffffffffffffffffffffffffffff1681526020019081526020016000206000018054600181600116156101000203166002900480601f016020809104026020016040519081016040528092919081815260200182805460018160011615610100020316600290048015610c695780601f10610c3e57610100808354040283529160200191610c69565b820191906000526020600020905b815481529060010190602001808311610c4c57829003601f168201915b50505050509050919050565b60606000808373ffffffffffffffffffffffffffffffffffffffff1673ffffffffffffffffffffffffffffffffffffffff1681526020019081526020016000206001018054600181600116156101000203166002900480601f016020809104026020016040519081016040528092919081815260200182805460018160011615610100020316600290048015610d4c5780601f10610d2157610100808354040283529160200191610d4c565b820191906000526020600020905b815481529060010190602001808311610d2f57829003601f168201915b50505050509050919050565b6000600180549050905090565b828054600181600116156101000203166002900490600052602060002090601f016020900481019282601f10610da657805160ff1916838001178555610dd4565b82800160010185558215610dd4579182015b82811115610dd3578251825591602001919060010190610db8565b5b509050610de19190610de5565b5090565b610e0791905b80821115610e03576000816000905550600101610deb565b5090565b905600a165627a7a7230582009df5102a22ee86445db3b2d32e4c55d28d3e2033b2c7c9d445621f7e8d502a90029",
  "source": "pragma solidity ^0.4.24;\n\n\n\n// This is just a simple example of a coin-like contract.\n// It is not standards compatible and cannot be expected to talk to other\n// coin/token contracts. If you want to create a standards-compliant\n// token, see: https://github.com/ConsenSys/Tokens. Cheers!\n\ncontract DegreeValidate {\n\tstruct StudentInfo {\n    string major;\n    string gradYear;\n\tuint index;\n  \t}\n\n\tmapping (address => StudentInfo) students;\n\t\n  \taddress[] private userIndex;\n\n\n\tevent PushExistingUser (address indexed userAddress, string major, string gradYear, uint index);\n\tevent PushNewUser (address indexed userAddress, string major, string gradYear, uint index);\n\n\tconstructor() public {\n\t\n\t\t\n\t}\n\tfunction isUser(address userAddress)\n    public \n    constant\n    returns(bool isIndeed) \n \t{\n    \tif(userIndex.length == 0) return false;\n    \treturn (userIndex[students[userAddress].index] == userAddress);\n  \t}\n\t\n\n\tfunction updateUser(address user, string major, string gradYear) public returns(bool success){\n\t\tif (!isUser(user)) {\n\t\t\tnewUser(user, major, gradYear);\n\t\t} \n\t\tstudents[user].major = major;\n\t\tstudents[user].gradYear = gradYear;\n\t\temit PushExistingUser(\n\t\t\tuser,\n\t\t\tstudents[user].major,\n\t\t\tstudents[user].gradYear,\n\t\t\tstudents[user].index \n\t\t);\n\t\t\n\t\treturn true;\n\t}\n\tfunction newUser(address user, string major, string gradYear) public returns(bool success){\n\t\t\n\t\tstudents[user].major = major;\n\t\tstudents[user].gradYear = gradYear;\n\t\tstudents[user].index    = userIndex.push(user)-1;\n\t\temit PushNewUser(\n\t\t\tuser,\n\t\t\tstudents[user].major,\n\t\t\tstudents[user].gradYear,\n\t\t\tstudents[user].index \n\t\t);\n\t\t\n\t\treturn true;\n\t}\n\n\t\n\n\tfunction getUserMajor(address addr) public view returns(string major){\n\t\treturn students[addr].major;\n\n\t}\n\tfunction getUserGradYear(address addr) public view returns(string gradYear){\n\t\treturn students[addr].gradYear;\n\n\t}\n\n\tfunction getMaxIndex() public view returns (uint maxIndex){\n\t\treturn userIndex.length;\n\n\t} \n\t\n}\n",
  "sourcePath": "C:\\Users\\Ethan\\Desktop\\Blockchain Project\\webProject\\contracts\\DegreeValidate.sol",
  "compiler": {
    "name": "solc",
    "version": "0.4.24+commit.e67f0147.Emscripten.clang"
  },
  "schemaVersion": "2.0.1",
  "updatedAt": "2018-11-30T06:18:00.422Z"
}